:020000040800F2
:1000000000C00020CD540008491E0008511E000801
:100010005D1E0008691E0008751E00080000000033
:10002000000000000000000000000000811E000829
:10003000891E0008000000008B1E0008931E0008A7
:1000400015550008155500081555000815550008E8
:1000500015550008155500081555000815550008D8
:10006000155500081555000815550008F11F000822
:100070001555000815550008C11E0008D11E0008BE
:10008000E11E0008F11E000815550008155500086E
:10009000155500081555000815550008511F000892
:1000A000155500081555000815550008891F00084A
:1000B000155500081120000815550008A11E00085C
:1000C000B11E000815550008011F0008155500084D
:1000D0001555000815550008155500081555000858
:1000E000111F000815550008155500081555000882
:1000F0001555000815550008BD1F000815550008C6
:100100001555000815550008155500081555000827
:100110001555000815550008155500081555000817
:100120001555000815550008155500080120000850
:1001300000000000000000000000000000000000BF
:1001400000000000000000000000000000000000AF
:10015000000000000000000000000000000000009F
:10016000000000000000000000000000000000008F
:10017000000000000000000000000000000000007F
:10018000000000000000000000000000000000006F
:10019000000000000000000000000000000000005F
:1001A000000000000000000000000000000000004F
:1001B000000000000000000000000000000000003F
:1001C000000000000000000000000000000000002F
:1001D000000000000000000000000000000000001F
:0401E0005FF8E0F1F3
:1001E800034613F8012B002AFBD1181A013870476F
:1001F80081F0004102E000BF83F0004330B54FEAD0
:1002080041044FEA430594EA050F08BF90EA020F3C
:100218001FBF54EA000C55EA020C7FEA645C7FEACF
:10022800655C00F0E2804FEA5454D4EB5555B8BFF2
:100238006D420CDD2C4480EA020281EA030382EA63
:10024800000083EA010180EA020281EA0303362DF5
:1002580088BF30BD11F0004F4FEA01314FF4801CC8
:100268004CEA113102D0404261EB410113F0004FDA
:100278004FEA03334CEA133302D0524263EB430391
:1002880094EA050F00F0A780A4F10104D5F1200E2F
:100298000DDB02FA0EFC22FA05F2801841F100018A
:1002A80003FA0EF2801843FA05F359410EE0A5F15E
:1002B80020050EF1200E012A03FA0EFC28BF4CF08F
:1002C800020C43FA05F3C01851EBE37101F0004545
:1002D80007D54FF0000EDCF1000C7EEB00006EEB52
:1002E8000101B1F5801F1BD3B1F5001F0CD34908DC
:1002F8005FEA30004FEA3C0C04F101044FEA445233
:1003080012F5800F80F09A80BCF1004F08BF5FEAB9
:10031800500C50F1000041EB045141EA050130BD99
:100328005FEA4C0C404141EB010111F4801FA4F13C
:100338000104E9D191F0000F04BF01460020B1FA91
:1003480081F308BF2033A3F10B03B3F120020CDAC9
:100358000C3208DD02F1140CC2F10C0201FA0CF0A7
:1003680021FA02F10CE002F11402D8BFC2F1200C0C
:1003780001FA02F120FA0CFCDCBF41EA0C019040C2
:10038800E41AA2BF01EB0451294330BD6FEA04040B
:100398001F3C1CDA0C340EDC04F11404C4F12002F6
:1003A80020FA04F001FA02F340EA030021FA04F308
:1003B80045EA030130BDC4F10C04C4F1200220FA5F
:1003C80002F001FA04F340EA0300294630BD21FA9D
:1003D80004F0294630BD94F0000F83F4801306BF63
:1003E80081F480110134013D4EE77FEA645C18BF57
:1003F8007FEA655C29D094EA050F08BF90EA020FEE
:1004080005D054EA000C04BF1946104630BD91EAE5
:10041800030F1EBF0021002030BD5FEA545C05D1E8
:100428004000494128BF41F0004130BD14F5800427
:100438003CBF01F5801130BD01F0004545F0FE419B
:1004480041F470014FF0000030BD7FEA645C1ABFD0
:10045800194610467FEA655C1CBF0B46024650EA07
:10046800013406BF52EA033591EA030F41F4002133
:1004780030BD00BF90F0000F04BF0021704730B5B9
:100488004FF4806404F132044FF000054FF000018E
:1004980050E700BF90F0000F04BF0021704730B54F
:1004A8004FF4806404F1320410F0004548BF404224
:1004B8004FF000013EE700BF42004FEAE2014FEA79
:1004C80031014FEA02701FBF12F07F4393F07F4F54
:1004D80081F06051704732F07F4208BF704793F057
:1004E8007F4F04BF41F40021704730B54FF460746A
:1004F80001F0004521F000411CE700BF50EA01026D
:1005080008BF704730B54FF000050AE050EA010215
:1005180008BF704730B511F0004502D5404261EB85
:1005280041014FF4806404F132045FEA915C3FF4C6
:10053800D8AE4FF003025FEADC0C18BF03325FEA63
:10054800DC0C18BF033202EBDC02C2F1200300FA14
:1005580003FC20FA02F001FA03FE40EA0E0021FA39
:1005680002F11444BDE600BF70B54FF0FF0C4CF427
:10057800E06C1CEA11541DBF1CEA135594EA0C0FD9
:1005880095EA0C0F00F0DEF82C4481EA030621EA14
:100598004C5123EA4C5350EA013518BF52EA03354F
:1005A80041F4801143F4801338D0A0FB02CE4FF001
:1005B8000005E1FB02E506F00042E0FB03E54FF031
:1005C8000006E1FB03569CF0000F18BF4EF0010E29
:1005D800A4F1FF04B6F5007F64F5407404D25FEA25
:1005E8004E0E6D4146EB060642EAC62141EA5551D8
:1005F8004FEAC52040EA5E504FEACE2EB4F1FD0C1A
:1006080088BFBCF5E06F1ED8BEF1004F08BF5FEA97
:10061800500E50F1000041EB045170BD06F0004649
:1006280046EA010140EA020081EA0301B4EB5C04F6
:10063800C2BFD4EB0C0541EA045170BD41F48011EE
:100648004FF0000E013C00F3AB8014F1360FDEBF13
:10065800002001F0004170BDC4F10004203C35DAEF
:100668000C341BDC04F11404C4F1200500FA05F372
:1006780020FA04F001FA05F240EA020001F0004213
:1006880021F0004110EBD37021FA04F642EB060189
:100698005EEA430E08BF20EAD37070BDC4F10C04B3
:1006A800C4F1200500FA04F320FA05F001FA04F277
:1006B80040EA020001F0004110EBD37041F1000163
:1006C8005EEA430E08BF20EAD37070BDC4F120056E
:1006D80000FA05F24EEA020E20FA04F301FA05F2D6
:1006E80043EA020321FA04F001F0004121FA04F27E
:1006F80020EA020000EBD3705EEA430E08BF20EA4E
:10070800D37070BD94F0000F0FD101F00046400087
:1007180041EB010111F4801F08BF013CF7D041EA09
:10072800060195F0000F18BF704703F0004652000D
:1007380043EB030313F4801F08BF013DF7D043EADE
:100748000603704794EA0C0F0CEA135518BF95EA94
:100758000C0F0CD050EA410618BF52EA4306D1D11B
:1007680081EA030101F000414FF0000070BD50EA3A
:10077800410606BF1046194652EA430619D094EAC4
:100788000C0F02D150EA013613D195EA0C0F05D1AE
:1007980052EA03361CBF104619460AD181EA030102
:1007A80001F0004141F0FE4141F470014FF00000BA
:1007B80070BD41F0FE4141F4780170BD70B54FF055
:1007C800FF0C4CF4E06C1CEA11541DBF1CEA1355D5
:1007D80094EA0C0F95EA0C0F00F0A7F8A4EB0504B7
:1007E80081EA030E52EA03354FEA013100F08880AE
:1007F8004FEA03334FF0805545EA131343EA126377
:100808004FEA022245EA111545EA10654FEA00262B
:100818000EF000419D4208BF964244F1FD0404F5E4
:10082800407402D25B084FEA3202B61A65EB030540
:100838005B084FEA32024FF480104FF4002CB6EBFD
:10084800020E75EB030E22BFB61A754640EA0C007D
:100858005B084FEA3202B6EB020E75EB030E22BFBD
:10086800B61A754640EA5C005B084FEA3202B6EBFE
:10087800020E75EB030E22BFB61A754640EA9C00BD
:100888005B084FEA3202B6EB020E75EB030E22BF8D
:10089800B61A754640EADC0055EA060E18D04FEA4B
:1008A800051545EA16754FEA06164FEAC30343EAEB
:1008B80052734FEAC2025FEA1C1CC0D111F4801FB8
:1008C8000BD141EA00014FF000004FF0004CB6E7B1
:1008D80011F4801F04BF01430020B4F1FD0C88BF50
:1008E800BCF5E06F3FF6AFAEB5EB030C04BFB6EB5B
:1008F800020C5FEA500C50F1000041EB045170BD4E
:100908000EF0004E4EEA113114EB5C04C2BFD4EB7A
:100918000C0541EA045170BD41F480114FF0000EFE
:10092800013C90E645EA060E8DE60CEA135594EA7A
:100938000C0F08BF95EA0C0F3FF43BAF94EA0C0F7D
:100948000AD150EA01347FF434AF95EA0C0F7FF4F2
:1009580025AF104619462CE795EA0C0F06D152EA46
:1009680003353FF4FDAE1046194622E750EA41062A
:1009780018BF52EA43067FF4C5AE50EA41047FF43B
:100988000DAF52EA43057FF4EBAE12E74FF0FF3CA0
:1009980006E000BF4FF0010C02E000BF4FF0010C71
:1009A8004DF804CD4FEA410C7FEA6C5C4FEA430CEA
:1009B80018BF7FEA6C5C1BD001B050EA410C0CBF39
:1009C80052EA430C91EA030F02BF90EA020F00209B
:1009D800704710F1000F91EA030F58BF994208BF02
:1009E80090422CBFD8176FEAE37040F001007047BF
:1009F8004FEA410C7FEA6C5C02D150EA013C07D116
:100A08004FEA430C7FEA6C5CD6D152EA033CD3D060
:100A18005DF8040B704700BF8446104662468C465A
:100A28001946634600E000BF01B5FFF7B7FF00288D
:100A380048BF10F1000F01BD4DF808EDFFF7F4FFB6
:100A48000CBF012000205DF808FB00BF4DF808ED41
:100A5800FFF7EAFF34BF012000205DF808FB00BF64
:100A68004DF808EDFFF7E0FF94BF012000205DF886
:100A780008FB00BF4DF808EDFFF7CEFF94BF01203B
:100A880000205DF808FB00BF4DF808EDFFF7C4FF34
:100A980034BF012000205DF808FB00BF4A0011D2D6
:100AA80012F5001211D20DD56FF47873B3EB6252C0
:100AB8000ED44FEAC12343F0004343EA505323FACC
:100AC80002F070474FF00000704750EA013002D141
:100AD8004FF0FF3070474FF0000070474FEA410277
:100AE800B2F1E04324BFB3F5001CDCF1FE5C0DD984
:100AF80001F0004C4FEAC0024CEA5070B2F1004FCE
:100B080040EB830008BF20F00100704711F0804FD0
:100B180021D113F13872BCBF01F00040704741F495
:100B280080114FEA5252C2F11802C2F1200C10FA99
:100B38000CF320FA02F018BF40F001004FEAC1237D
:100B48004FEAD32303FA0CFC40EA0C0023FA02F321
:100B58004FEA4303CCE77FEA625307D150EA0133F7
:100B68001EBF4FF0FE4040F44000704701F00040C7
:100B780040F0FE4040F40000704700BF4FF0FF0C0B
:100B88001CEAD0521EBF1CEAD15392EA0C0F93EA1A
:100B98000C0F6FD01A4480EA010C400218BF5FEABC
:100BA80041211ED04FF0006343EA501043EA51112F
:100BB800A0FB01310CF00040B1F5000F3EBF490029
:100BC80041EAD3715B0040EA010062F17F02FD2A2D
:100BD8001DD8B3F1004F40EBC25008BF20F0010010
:100BE800704790F0000F0CF0004C08BF49024CEA27
:100BF800502040EA51207F3AC2BFD2F1FF0340EAB9
:100C0800C250704740F400004FF00003013A5DDC29
:100C180012F1190FDCBF00F000407047C2F100026A
:100C2800410021FA02F1C2F1200200FA02FC5FEA57
:100C3800310040F1000053EA4C0308BF20EADC70A1
:100C4800704792F0000F00F0004C02BF400010F413
:100C5800000F013AF9D040EA0C0093F0000F01F0C0
:100C6800004C02BF490011F4000F013BF9D041EAE2
:100C78000C018FE70CEAD15392EA0C0F18BF93EAE4
:100C88000C0F0AD030F0004C18BF31F0004CD8D10E
:100C980080EA010000F00040704790F0000F17BF95
:100CA80090F0004F084691F0000F91F0004F14D0DB
:100CB80092EA0C0F01D142020FD193EA0C0F03D133
:100CC8004B0218BF084608D180EA010000F0004036
:100CD80040F0FE4040F40000704740F0FE4040F411
:100CE800400070474FF0FF0C1CEAD0521EBF1CEAB0
:100CF800D15392EA0C0F93EA0C0F69D0A2EB0302CE
:100D080080EA010C49024FEA402037D04FF0805367
:100D180043EA111143EA10130CF000408B4238BF2C
:100D28005B0042F17D024FF4000C8B4224BF5B1A3A
:100D380040EA0C00B3EB510F24BFA3EB510340EA88
:100D48005C00B3EB910F24BFA3EB910340EA9C0036
:100D5800B3EBD10F24BFA3EBD10340EADC001B01A6
:100D680018BF5FEA1C1CE0D1FD2A3FF650AF8B424A
:100D780040EBC25008BF20F0010070470CF0004C57
:100D88004CEA50207F32C2BFD2F1FF0340EAC25082
:100D9800704740F400004FF00003013A37E792F043
:100DA800000F00F0004C02BF400010F4000F013AA1
:100DB800F9D040EA0C0093F0000F01F0004C02BF9C
:100DC800490011F4000F013BF9D041EA0C0195E705
:100DD8000CEAD15392EA0C0F08D142027FF47DAF9E
:100DE80093EA0C0F7FF470AF084676E793EA0C0F8E
:100DF80004D14B023FF44CAF08466EE730F0004C8C
:100E080018BF31F0004CCAD130F000427FF45CAF1B
:100E180031F000437FF43CAF5FE700BF4FF0FF3C89
:100E280006E000BF4FF0010C02E000BF4FF0010CDC
:100E38004DF804CD4FEA40024FEA41037FEA226CA5
:100E480018BF7FEA236C11D001B052EA530C18BFC7
:100E580090EA010F58BFB2EB030088BFC81738BF2C
:100E68006FEAE17018BF40F0010070477FEA226C1A
:100E780002D15FEA402C05D17FEA236CE4D15FEA16
:100E8800412CE1D05DF8040B704700BF844608464A
:100E98006146FFE70FB5FFF7C9FF002848BF10F10B
:100EA800000F0FBD4DF808EDFFF7F4FF0CBF012050
:100EB80000205DF808FB00BF4DF808EDFFF7EAFFDA
:100EC80034BF012000205DF808FB00BF4DF808ED95
:100ED800FFF7E0FF94BF012000205DF808FB00BF8A
:100EE8004DF808EDFFF7D2FF94BF012000205DF810
:100EF80008FB00BF4DF808EDFFF7C8FF34BF01201D
:100F080000205DF808FB00BF4FEA4002B2F1FE4F37
:100F18000FD34FF09E03B3EB12620DD94FEA0023B3
:100F280043F0004310F0004F23FA02F018BF40428C
:100F380070474FF00000704712F1610F01D1420273
:100F480005D110F0004008BF6FF0004070474FF027
:100F58000000704710B5054C227832B9044B13B124
:100F68000448AFF300800123237010BD68000020FF
:100F780000000000D45D000808B5034B1BB103490D
:100F88000348AFF3008008BD000000006C0000209B
:100F9800D45D000808B5436A9A6A12F0500F03D06E
:100FA8001B6A1B6B984708BD9A6A42F400729A62E2
:100FB8001A68926802F46022B2F5602F03D01846CE
:100FC80003F094FFEFE7DA68002AF8D19A6A22F46E
:100FD80080729A629A6A12F4805FF0D19A6A42F03B
:100FE80001029A62EBE7704708B5406AFFF7FBFF1A
:100FF80008BD704708B5406A836A43F040038362BE
:10100800C36A43F00403C362FFF7F3FF08BD00009F
:10101800F0B482B00022019290F82420012A00F056
:10102800CC800346012280F824204A68062A44D846
:101038000668746B4FF4787090FAA0F5B5FA85F5E8
:10104800013A02FB05F51F2707FA05F524EA05040E
:101058000D6890FAA0F0B0FA80F000FB02F205FAF1
:1010680002F2224372630C68092C60D91F68FD687C
:10107800382090FAA0F6B6FA86F6A4F10A0202FB26
:1010880006F64FF0070C0CFA06F625EA06058E68F8
:1010980090FAA0F0B0FA80F000FB02F206FA02F231
:1010A8002A43FA600A68103A012A5AD90020002215
:1010B80083F8242002B0F0BC70470C2A1BD80668BD
:1010C800346B4FF4787090FAA0F5B5FA85F5073AC5
:1010D80002FB05F51F2707FA05F524EA05040D6844
:1010E80090FAA0F0B0FA80F000FB02F205FA02F2E2
:1010F80022433263B7E70668F56A4FF4787090FACE
:10110800A0F4B4FA84F40D3A02FB04F41F2707FA9A
:1011180004F425EA04050C6890FAA0F0B0FA80F00F
:1011280000FB02F204FA02F22A43F2629BE71E680D
:101138003569382292FAA2F0B0FA80F000FB04F088
:10114800072707FA00F025EA0005886892FAA2F254
:10115800B2FA82F202FB04F200FA02F22A43326186
:10116800A0E71A681648824205D09A6A42F020021F
:101178009A6201209BE7906810F4000F1BD19068D9
:1011880040F4000090600A68102A01D000208EE721
:101198000C4A12680C49A1FB0212920C02EB820263
:1011A8005100019102E0019A013A0192019A002A44
:1011B800F9D100207BE7002079E702207AE700BF19
:1011C800002401400000002083DE1B4330B583B0BB
:1011D8000023019303689A6812F0010F2ED19A68D0
:1011E80042F001029A60174B1B68174AA2FB0323BF
:1011F8009B0C019302E0019B013B0193019B002B97
:10120800F9D1044602F0E6F9054623689B6813F015
:10121800010F11D102F0DEF9401B0228F5D9A36AAB
:1012280043F01003A362E36A43F00103E36200237F
:1012380084F82430012002E0002000E0002003B000
:1012480030BD00BF0000002083DE1B4390F824302F
:10125800012B6AD010B50446012380F82430FFF72B
:10126800B5FF024600285BD1A36A23F4407323F03C
:10127800010343F48073A36223682D498B4227D06E
:10128800A16A21F48011A162596811F4806F05D018
:10129800A16A21F4405141F48051A162A16A11F47C
:1012A800805F2BD0E16A21F00601E162002184F819
:1012B80024106FF0020119602368996801F4602115
:1012C800B1F5602F1DD0996841F4801199602AE02A
:1012D800A1F58061496811F4702FD1D0A16A41F459
:1012E8008011A1621349496811F4806FD6D0A16AB0
:1012F80021F4405141F48051A162CFE70021E1621D
:10130800D4E70B498B4204D0996841F4A001996055
:1013180009E0A1F58061496811F4702FD3D1F3E792
:10132800002384F82430104610BD0222104670476E
:101338000028014000240140F8B50468454DAC423E
:101348005BD0454B9C4258D090F82440012C7ED06D
:1013580016460D460446012380F82430FFF736FF71
:10136800074600286ED1A36A23F4706323F00103B3
:1013780043F48073A3622268374B9A4244D0A36A2D
:1013880023F48013A362536813F4806F05D0A36A13
:1013980023F4405343F48053A362A36A13F4805F99
:1013A80048D0E36A23F00603E362002384F824307C
:1013B800236A2A4A9A62236A294ADA62236A294AEC
:1013C8001A6323686FF002021A602268936843F474
:1013D80080739360216833462A464C31206A01F0B5
:1013E800A9FA2268936803F46023B3F5602F24D028
:1013F800936843F48013936027E0164B5B6813F4FB
:10140800702FA1D0012720E0A3F580635B6813F457
:10141800702FB4D0A36A43F48013A3620D4B5B68AA
:1014280013F4806FB9D0A36A23F4405343F4805374
:10143800A362B2E70023E362B7E7936843F4A0032B
:10144800936002E0002384F824303846F8BD022770
:10145800FBE700BF00240140002801409D0F000861
:10146800F10F0008FD0F000838B503689A6812F0FC
:10147800010F01D1002038BD04469A6822F001020C
:101488009A6002F0A7F8054623689B6813F0010FDD
:101498000ED002F09FF8401B0228F5D9A36A43F04A
:1014A8001003A362E36A43F00103E3620120E2E769
:1014B8000020E0E7002800F09F8070B50446836AAA
:1014C800002B3ED02046FFF7CFFFA36A13F010038E
:1014D80040F08C80002840F08980A26A22F488526B
:1014E80022F0020242F00202A262626825684349C1
:1014F8008D422CD0E1691143E668022292FAA2F2E9
:10150800B2FA82F206FA02F20A43A168B1F5807FC4
:1015180027D0012922D06169012925D0696821F4E1
:1015280069410B436B6021688D68354B2B40134331
:101538008B60A368B3F5807F2DD0012B2BD00021C1
:1015480033E0C36280F8243003F0D2FEBAE7E169E1
:10155800B1F5402FCFD14FF40021CCE74FF4807381
:10156800D9E74FF48073D6E766B9A16901394FF41A
:10157800604696FAA6F6B6FA86F6B14041F40061DE
:101588000B43CBE7A16A41F02001A162E16A41F077
:101598000101E162C2E72369013B4FF4700191FA4E
:1015A800A1F1B1FA81F103FA01F12568EB6A23F49C
:1015B80070030B43EB6223689968124B0B4093420C
:1015C8000BD0A36A23F0120343F01003A362E36A6B
:1015D80043F00103E36201200DE00023E362A36A04
:1015E80023F0030343F00103A36204E0A36A43F07A
:1015F8001003A362012070BD01207047003C014028
:10160800FDF7E1FFFE0E1FFF90F83830012B1DD0CB
:1016180010B4012280F83820022380F839300B6892
:101628004C6823438C682343CC6823430C692343C9
:101638004C6923438C69016823434B6480F8392043
:10164800002380F83830184610BC704702207047D5
:10165800074AD36823F4E0631B041B0C000200F460
:10166800E060184340F0BF6040F40030D06070473D
:1016780000ED00E030B4174BDB68C3F30223C3F17D
:101688000704042C28BF04241D1D062D18D9033B6C
:101698004FF0FF3505FA04F421EA0401994005FAF0
:1016A80003F322EA0303194300280BDB0901C9B23B
:1016B80000F1604000F5614080F8001330BC7047CD
:1016C8000023E5E700F00F000901C9B2024B1954E5
:1016D800F4E700BF00ED00E014ED00E000F01F02A9
:1016E800400901239340024A42F82030704700BF66
:1016F80000E100E000F01F02400901239340203080
:10170800014A42F82030704700E100E00138B0F1AA
:10171800807F0AD2064B5860064AF02182F82310CF
:101728000020986007221A6070470120704700BFA8
:1017380010E000E000ED00E0042805D0054A136839
:1017480023F0040313607047024A136843F004034C
:101758001360704710E000E0704708B5FFF7FCFF22
:1017680008BD0000F0B482B000263546ABE0002C7E
:1017780063D0012C00D1CE68FF2B72D88446FF2B92
:1017880072D8AC00DCF800200F27A74022EA070235
:1017980006FA04F42243CCF800204A6812F0805F6D
:1017A80000F09080654A946944F00104946192695C
:1017B80002F001020192019AAC08A71C604A52F893
:1017C80027C005F0030297000F22BA402CEA020C4A
:1017D8005C4A90424ED002F58062904200F08B80C5
:1017E80002F58062904200F0888002F580629042A3
:1017F80000F0858002F58062904200F0828002F558
:101808008062904234D0062235E04F4FBC4214D05B
:101818000BD94E4FBC4210D007F58037BC420CD0D4
:10182800A7F58017BC42A7D107E0A7F58017BC42EF
:1018380003D007F58037BC429ED18C687CB1012C5F
:1018480008D04261082697E7CE68083694E7CE6844
:101858000C3691E7026108268EE700268CE70426FD
:101868008AE700F1040C8AE7A5F10804A40089E7D7
:10187800052200E00022BA4042EA0C020234304F4E
:1018880047F824204A6812F4803F3CD0304C226844
:101898001A4322604A6812F4003F3AD02C4C62681E
:1018A8001A4362604A6812F4801F38D0284CA26834
:1018B8001A43A2604A6812F4001F36D0244CE2682A
:1018C8001343E36001350F2D35D80122AA400B6878
:1018D80013409A42F6D14C68122CB8D095D8022CF5
:1018E800B2D07FF644AF032CB7D0112C7FF444AFAD
:1018F800CE68043640E70122BDE70222BBE7032297
:10190800B9E70422B7E7124C226822EA03022260F0
:10191800C0E70F4C626822EA03026260C2E70C4C1F
:10192800A26822EA0302A260C4E7094CE26822EA3C
:101938000303E360C6E702B0F0BC70470010024042
:101948000000014000080140000021100000311093
:10195800000401408368194201D10020704701202A
:10196800704712B9090401617047016170470000AE
:101978000F4B1A6842F001021A6059680D4A0A4072
:101988005A601A6822F0847222F480321A601A6847
:1019980022F480221A605A6822F4FE025A604FF438
:1019A8001F029A60044B4FF000629A60704700BFB4
:1019B800001002400000FFF800ED00E030B4036AB8
:1019C80023F001030362056A4268846924F0730402
:1019D8000B681C4325F002058B682B43104DA84269
:1019E80003D005F50065A84205D123F00803CD68AA
:1019F8002B4323F004030A4DA84203D005F50065E4
:101A0800A84205D122F440724D6915438A692A43D8
:101A1800426084614A684263036230BC704700BF19
:101A2800002C014030B4036A23F480730362036A14
:101A38004268C46924F073040D682C4323F40073CE
:101A48008D6843EA0523124DA84203D005F50065C9
:101A5800A84206D123F40063CD6843EA052323F4A2
:101A680080630B4DA84203D005F50065A84207D155
:101A780022F440524D6942EA05128D6942EA051284
:101A88004260C4614A68C263036230BC704700BFE9
:101A9800002C014030B4036A23F480530362036AC4
:101AA8004468C26922F4E6420D6842EA052223F43A
:101AB80000538D6843EA0533094DA84203D005F564
:101AC8000065A84204D124F480444D6944EA851491
:101AD8004460C2614A680264036230BC704700BF58
:101AE800002C01407047022380F8393002681368DF
:101AF80043F001031360012380F839300020704758
:101B0800022380F839300368196A41F21112114230
:101B180008D1196A40F24442114203D11A6822F0EE
:101B280001021A60012380F839300020704770479D
:101B38000368224A904212D002F5006290420ED009
:101B4800B0F1804F0BD0A2F59832904207D002F541
:101B58008062904203D002F58062904203D123F064
:101B680070034A681343154A904212D002F5006286
:101B780090420ED0B0F1804F0BD0A2F5983290422F
:101B880007D002F58062904203D002F5806290424D
:101B980003D123F44073CA68134303608B68C3629C
:101BA8000B688362054B984203D003F500639842A3
:101BB80001D10B690363012343617047002C014085
:101BC800A8B110B5044690F839305BB1022384F807
:101BD8003930211D2068FFF7ABFF012384F8393025
:101BE800002010BD80F83830FFF77CFFEEE70120B9
:101BF8007047A8B110B5044690F839305BB102239C
:101C080084F83930211D2068FFF792FF012384F8FA
:101C18003930002010BD80F83830FFF788FFEEE734
:101C28000120704730B4036A23F010030362036A8B
:101C38004468826922F4E6420D6842EA052223F0EC
:101C480020038D6843EA0513114DA84203D005F51A
:101C58000065A84206D123F08003CD6843EA051346
:101C680023F040030A4DA84203D005F50065A842B9
:101C780007D124F440644D6944EA85048D6944EA37
:101C88008504446082614A688263036230BC70479D
:101C9800002C014038B590F83830012B66D00D463D
:101CA8000446012380F83830022380F839300C2AA2
:101CB8001AD8DFE802F00719191920191919341967
:101CC800191947000068FFF779FE2268936943F005
:101CD800080393612268936923F0040393612268DF
:101CE800936929690B439361012384F839300020F3
:101CF80084F8380038BD0068FFF794FF22689369BC
:101D080043F4006393612268936923F480639361C9
:101D180022689369296943EA01239361E4E700682B
:101D2800FFF780FE2268D36943F00803D361226875
:101D3800D36923F00403D3612268D36929690B436B
:101D4800D361D1E70068FFF7A5FE2268D36943F4A1
:101D58000063D3612268D36923F48063D361226866
:101D6800D369296943EA0123D361BDE70220C1E7AA
:101D780010B4012303FA01F4036A23EA040303629B
:101D8800036A8A401343036210BC704710B50446C7
:101D980001220068FFF7ECFF2368094A934203D049
:101DA80002F50062934203D15A6C42F400425A642D
:101DB8002268136843F001031360002010BD00BFC0
:101DC800002C014010B504460C290DD8DFE801F0BD
:101DD800070C0C0C230C0C0C290C0C0C2F000268A3
:101DE800D36843F00203D36001222068FFF7C0FFE5
:101DF8002368124A934203D002F50062934203D14A
:101E08005A6C42F400425A642268136843F0010392
:101E18001360002010BD0268D36843F00403D36048
:101E2800E2E70268D36843F00803D360DCE702689E
:101E3800D36843F01003D360D6E700BF002C0140FD
:101E480000BF00BF00BFFBE708B502F087FB02F048
:101E5800A5F8FEE708B502F081FB02F09FF8FEE75F
:101E680008B502F07BFB02F099F8FEE708B502F02E
:101E780075FB02F093F8FEE700BF00BF00BFFBE769
:101E8800704700BF00BF00BFFBE708B501F09AFB31
:101E9800FFF763FC08BD000008B5024801F0FBFC31
:101EA80008BD00BF0404002008B5024801F080FD09
:101EB80008BD00BF0404002008B5024800F066FD14
:101EC80008BD00BF7804002008B5024800F05EFD98
:101ED80008BD00BF4004002008B5024800F056FDC8
:101EE80008BD00BF1803002008B5024800F04EFDE9
:101EF80008BD00BF5003002008B5024801F058FD96
:101F080008BD00BF0404002008B50E4B5B6913F43C
:101F1800806F09D10B4B5B6913F4006F04D1094B37
:101F28005B6913F4805F0BD002F028FD054B4FF47A
:101F380080625A614FF400625A614FF480525A61CC
:101F480008BD00BF0004014008B50C4B5B6913F0E5
:101F5800200F09D1094B5B6913F0400F04D1074BDF
:101F68005B6913F0800F08D002F010FA034B2022AF
:101F78005A6140225A6180225A6108BD000401401A
:101F880008B50A4B1B686FF002021A616FF0040271
:101F98001A616FF008021A616FF010021A6102F0FC
:101FA800F5FC0348FFF752F908BD00BF60020020A6
:101FB8000801002008B50A4B1B686FF002021A617D
:101FC8006FF004021A616FF008021A616FF01002D4
:101FD8001A6102F0E3F90348FFF738F908BD00BFBA
:101FE80004020020D800002008B5024800F0CEFC0A
:101FF80008BD00BF4801002008B5024800F0C6FC33
:1020080008BD00BFA0000020024B1B686FF0010252
:102018001A6170479C01002030B583B004460368FC
:1020280013F0010F3BD0B14B5B6803F00C03042B9A
:102038001ED0AE4B5B6803F00C03082B13D063680B
:10204800B3F5803F68D0002B40F08B8003F18043CC
:1020580003F504331A6822F480321A601A6822F4ED
:1020680080221A605DE0A14B5B6813F4803FE6D0E4
:102078004FF4003393FAA3F39C4B1A684FF40033E0
:1020880093FAA3F3B3FA83F303F01F0322FA03F3DB
:1020980013F0010F03D06368002B00F09D822368C2
:1020A80013F0020F00F0BF80904B5B6813F00C0F29
:1020B80000F095808D4B5B6803F00C03082B00F053
:1020C80088802369002B00F0E980012292FAA2F3AC
:1020D800B3FA83F39B0003F1844303F584031A6086
:1020E80001F078FA0546022393FAA3F37F4B1A68A6
:1020F800022393FAA3F3B3FA83F303F01F0322FA3C
:1021080003F313F0010F40F0BA8001F063FA401BAB
:102118000228E8D9032066E2744A136843F480333E
:1021280013606368002B36D001F054FA05464FF46B
:10213800003393FAA3F36D4B1A684FF4003393FA04
:10214800A3F3B3FA83F303F01F0322FA03F313F0A4
:10215800010FA4D101F03EFA401B6428E7D90320FF
:1021680041E2B3F5A02F09D0604B1A6822F48032FF
:102178001A601A6822F480221A60D2E703F18043B9
:10218800A3F53C331A6842F480221A601A6842F4B4
:1021980080321A60C5E701F01DFA05464FF4003396
:1021A80093FAA3F3514B1A684FF4003393FAA3F34D
:1021B800B3FA83F303F01F0322FA03F313F0010FBA
:1021C8003FF46DAF01F006FA401B6428E6D90320FE
:1021D80009E2464B5B6813F4803F7FF472AF022339
:1021E80093FAA3F3414B1A68022393FAA3F3B3FAC1
:1021F80083F303F01F0322FA03F313F0010F04D053
:102208002369012B01D00120EDE13848036823F050
:10221800F8036169F82292FAA2F2B2FA82F201FA9C
:1022280002F213430360236813F0080F65D0A36913
:10223800002B00F09F80012292FAA2F3B3FA83F3F5
:102248002B4941F8232001F0C5F90546022393FAEA
:10225800A3F293FAA3F2254A526A93FAA3F3B3FAC4
:1022680083F303F01F0322FA03F313F0010F41D1A4
:1022780001F0B0F9401B0228E8D90320B3E11B485C
:10228800036823F0F8036169F82292FAA2F2B2FA1D
:1022980082F201FA02F213430360C4E7012393FABE
:1022A800A3F3B3FA83F39B0003F1844303F5840398
:1022B80000221A6001F08EF90546022393FAA3F36F
:1022C8000A4B1A68022393FAA3F3B3FA83F303F0D1
:1022D8001F0322FA03F313F0010FA4D001F07AF9D7
:1022E800401B0228E9D903207DE100BF001002400D
:1022F80080044242012001F073F9236813F0040FAF
:102308005DD1E369002B00F06D81B94A526802F093
:102318000C02082A00F06981022B00F0F0804FF0CF
:10232800807393FAA3F3B3FA83F39B0003F1844316
:1023380003F5840300221A6001F04CF904464FF0BB
:10234800007393FAA3F3AA4B1A684FF0007393FA39
:10235800A3F3B3FA83F303F01F0322FA03F313F092
:10236800010F00F0378101F035F9001B0228E6D98A
:10237800032038E1012393FAA3F3B3FA83F39D4AC8
:10238800002142F8231001F025F90546022393FAAB
:10239800A3F293FAA3F2964A526A93FAA3F3B3FA12
:1023A80083F303F01F0322FA03F313F0010FA4D001
:1023B80001F010F9401B0228E8D9032013E18C4BE7
:1023C800DA6942F08052DA61DB6903F080530193E5
:1023D800019B894A136843F48073136001F0FAF88B
:1023E8000546854B1B6813F4807F06D101F0F2F88F
:1023F800401B6428F5D90320F5E0E368012B0DD0D4
:10240800C3B903F1804303F504331A6A22F00102C9
:102418001A621A6A22F004021A6204E0744A136A01
:1024280043F001031362E368002B3FD001F0D2F8B8
:1024380005462CE0052B09D06D4B1A6A22F00102E3
:102448001A621A6A22F004021A62ECE7684B1A6AE6
:1024580042F004021A621A6A42F001021A62E2E7C2
:10246800634B1A6A022393FAA3F3B3FA83F303F0D4
:102478001F0322FA03F313F0010F7FF442AF01F0B8
:10248800A9F8401B41F28833984200F2A780022342
:1024980093FAA3F293FAA3F3B3FA83F35B0943F035
:1024A8000203022BDCD0524B5A6ADBE701F092F8A8
:1024B800054615E04E4B1A6A022393FAA3F3B3FAC2
:1024C80083F303F01F0322FA03F313F0010F3FF421
:1024D80018AF01F07FF8401B41F2883398427FD84B
:1024E800022393FAA3F293FAA3F3B3FA83F35B09F3
:1024F80043F00203022BDDD03D4B5A6ADCE74FF074
:10250800807393FAA3F3B3FA83F39B0003F1844334
:1025180003F5840300221A6001F05CF805464FF0C9
:10252800007393FAA3F3324B1A684FF0007393FACF
:10253800A3F3B3FA83F303F01F0322FA03F313F0B0
:10254800010F06D001F046F8401B0228E7D9032006
:1025580049E0236AB3F5803F32D025494B6823F41C
:102568007413226A606A024313434B604FF080730E
:1025780093FAA3F3B3FA83F39B0003F1844303F5BF
:10258800840301221A6001F025F804464FF0007315
:1025980093FAA3F3164B1A684FF0007393FAA3F358
:1025A800B3FA83F303F01F0322FA03F313F0010FC6
:1025B8000ED101F00FF8001B0228E7D9032012E022
:1025C8000B4A536823F40033A1680B435360C4E7F4
:1025D800002008E0002006E0012004E0032002E0DB
:1025E800032000E0002003B030BD0120FBE700BF5E
:1025F80000100240800442420070004010B487B0CE
:102608001D4C94E80F000DF1180C0CE90F00238AFB
:10261800ADF80430194B596801F00C03082B28D188
:1026280001F470134FF4701292FAA2F2B2FA82F225
:10263800D340634413F8100C11F4803F05D1104BBC
:1026480003FB00F007B010BC70470C4B5B6803F449
:1026580000334FF4003292FAA2F2B2FA82F2D34077
:10266800634413F8142C074BB3FBF2F300FB03F09D
:10267800E8E70448E6E700BFEC5D00080010024008
:1026880000093D0000127A00704B1B6803F0070335
:102698008B420CD26D4A136823F007030B43136077
:1026A800136803F007038B4201D00120704770B50F
:1026B800036813F0020F06D0654A536823F0F0034D
:1026C8008468234353600C460546036813F0010FE2
:1026D8007AD04368012B2FD0022B42D0022292FAE3
:1026E800A2F25B4A1168022292FAA2F2B2FA82F2CC
:1026F80002F01F0221FA02F212F0010F00F0A4808A
:1027080053494A6822F0030213434B6000F062FF0A
:1027180006466B68012B39D0022B46D04C4B5B68C0
:1027280013F00C0F50D000F055FF801B41F2883396
:102738009842F3D9032086E04FF4003292FAA2F2CD
:10274800434A11684FF4003292FAA2F2B2FA82F2C6
:1027580002F01F0221FA02F212F0010FD0D101207B
:1027680071E04FF0007292FAA2F2394A11684FF004
:10277800007292FAA2F2B2FA82F202F01F0221FA71
:1027880002F212F0010FBBD101205CE0304B5B6814
:1027980003F00C03042B17D000F01CFF801B41F240
:1027A80088339842F2D903204DE0294B5B6803F047
:1027B8000C03082B08D000F00DFF801B41F2883372
:1027C8009842F2D903203EE0204B1B6803F0070330
:1027D800A3420CD91D4A136823F00703234313604F
:1027E800136803F00703A34201D001202BE02B68F4
:1027F80013F0040F06D0164A536823F4E063E9681F
:102808000B4353602B6813F0080F07D0104A536826
:1028180023F46053296943EAC1035360FFF7EEFECE
:102828000B4B5B6803F0F003F02292FAA2F2B2FAC3
:1028380082F2D340074AD35CD840074B1860002087
:1028480000F09AFE002070BD0120FCE70020024045
:1028580000100240005E000800000020014B1868CC
:10286800704700BF0000002008B5FFF7F7FF074BCF
:102878005B6803F4E0634FF4E06292FAA2F2B2FA02
:1028880082F2D340024AD35CD84008BD001002400F
:10289800105E000808B5FFF7E1FF074B5B6803F41B
:1028A80060534FF4605292FAA2F2B2FA82F2D34025
:1028B800024AD35CD84008BD00100240105E0008F0
:1028C80010B4046863604368102B05D003689960EE
:1028D8000368DA6010BC704703689A600368D960BF
:1028E800F8E728B310B4024690F821300BB980F805
:1028F8002030022382F821301068016821F47F51CA
:1029080021F03001536894682343D4682343146941
:1029180023435469234394692343D46923430B43D2
:10292800036000205063012382F8213010BC7047F7
:102938000120704738B590F82040012C24D0044677
:10294800012084F82000022084F8210025682868E6
:1029580020F0010028602046FFF7B2FF22681368C4
:1029680043F0020313602268136843F00403136002
:102978002268136843F0080313602268136843F061
:1029880001031360002038BD0220FCE710B504469F
:102998000368BF4A934240F2888002F56072126869
:1029A800BC498B4224D014318B4266D014318B42FF
:1029B80065D014318B4265D014318B4265D0143107
:1029C8008B4265D014318B4265D001F562718B4220
:1029D80064D014318B4263D014318B4262D01431ED
:1029E8008B4202D04FF4002103E04FF4004100E095
:1029F80008210A4214BF01220022002A00F0B180F7
:102A08001A6812F0080F00F0AC801A6822F0080269
:102A18001A6023689E4A934240F2F280783A9342C1
:102A280000F08E801432934200F0D2801432934228
:102A380000F0D0801432934200F0CF8014329342D9
:102A480000F0CE801432934200F0CD8014329342CD
:102A580000F0CC8002F56272934200F0CA80143212
:102A6800934200F0C8801432934200F0C6801432BA
:102A7800934262D04FF4002263E08021B9E74FF41B
:102A88000061B6E74FF40041B3E74FF40021B0E727
:102A98004FF40001ADE74FF00061AAE70821A8E76D
:102AA8008021A6E74FF40061A3E77B4A12687949C1
:102AB8008B4224D014318B4227D014318B4226D03C
:102AC80014318B4226D014318B4226D014318B42DC
:102AD80026D014318B4226D001F562718B4225D065
:102AE80014318B4224D014318B4223D014318B42C1
:102AF80002D04FF4002103E04FF4004100E0082128
:102B08000A4214BF0122002277E78021F8E74FF438
:102B18000061F5E74FF40041F2E74FF40021EFE7D9
:102B28004FF40001ECE74FF00061E9E70821E7E71F
:102B38008021E5E74FF40061E2E74FF4004200E04E
:102B48000822564B5A60636B43F001036363042306
:102B580084F82130002384F82030236B0BB1204601
:102B6800984723684A4A934240F2FB8002F5607214
:102B7800126848498B4200F0938014318B4200F070
:102B8800D88014318B4200F0D68014318B4200F08B
:102B9800D58014318B4200F0D48014318B4200F080
:102BA800D38014318B4200F0D28001F562718B42E0
:102BB80000F0D08014318B4200F0CE8014318B426B
:102BC80000F0CC8014318B425ED04FF4802168E055
:102BD8008022B6E74FF40062B3E74FF40042B0E753
:102BE8004FF40022ADE74FF40002AAE74FF000626D
:102BF800A7E70822A5E78022A3E74FF40062A0E731
:102C0800244A934224D01432934225D0143293425A
:102C180024D01432934224D01432934224D0143254
:102C2800934224D01432934224D002F56272934224
:102C380023D01432934222D01432934221D014323A
:102C4800934202D04FF4002203E04FF4004200E028
:102C58000822114B5A6076E78022FAE74FF40062A7
:102C6800F7E74FF40042F4E74FF40022F1E74FF49E
:102C78000002EEE74FF00062EBE70822E9E7802266
:102C8800E7E74FF40062E4E74FF4804109E000BF52
:102C98008000024008000240000002400004024098
:102CA80004210A4214BF01220022002A00F0AE804B
:102CB8001A6812F0040F00F0A9801A6812F0200FA9
:102CC80003D11A6822F004021A602368C64A9342A4
:102CD80040F2EB80783A934200F08E8014329342AF
:102CE80000F0CB801432934200F0C9801432934232
:102CF80000F0C8801432934200F0C7801432934227
:102D080000F0C6801432934200F0C58002F562726A
:102D1800934200F0C3801432934200F0C180143211
:102D2800934200F0BF801432934262D04FF4802265
:102D380063E04021B5E74FF48061B2E74FF480418A
:102D4800AFE74FF48021ACE74FF48001A9E74FF0DB
:102D58008061A6E70421A4E74021A2E74FF480613F
:102D68009FE7A24A1268A2498B4224D014318B42B1
:102D780027D014318B4226D014318B4226D01431FF
:102D88008B4226D014318B4226D014318B4226D068
:102D980001F562718B4225D014318B4224D0143155
:102DA8008B4223D014318B4202D04FF4802103E0B0
:102DB8004FF4804100E004210A4214BF012200229E
:102DC80073E74021F8E74FF48061F5E74FF480415D
:102DD800F2E74FF48021EFE74FF48001ECE74FF082
:102DE8008061E9E70421E7E74021E5E74FF48061E6
:102DF800E2E74FF4804200E004227E4B5A60112340
:102E080084F82130E36A0BB1204698472368764A54
:102E1800934240F2FB8002F56072126874498B425B
:102E280000F08A8014318B4200F0CF8014318B423D
:102E380000F0CD8014318B4200F0CC8014318B42ED
:102E480000F0CB8014318B4200F0CA8014318B42E1
:102E580000F0D28001F562718B4200F0D08014310D
:102E68008B4200F0CE8014318B4200F0CC801431BC
:102E78008B425ED04FF400315FE04022BDE74FF453
:102E88008062BAE74FF48042B7E74FF48022B4E794
:102E98004FF48002B1E74FF08062AEE70422ACE75E
:102EA8004022AAE74FF48062A7E7514A934224D010
:102EB8001432934225D01432934224D014329342D0
:102EC80024D01432934224D01432934224D01432A2
:102ED800934224D002F56272934223D01432934273
:102EE80022D01432934221D01432934202D04FF4AC
:102EF800802203E04FF4804200E004223B4B5A60FA
:102F08007DE74022FAE74FF48062F7E74FF480420A
:102F1800F4E74FF48022F1E74FF48002EEE74FF038
:102F28008062EBE70422E9E74022E7E74FF480629A
:102F3800E4E74FF4005100E002210A4214BF0122E5
:102F48000022002A00F0BC801A6812F0020F00F07C
:102F5800B7801A6812F0200F03D11A6822F0020213
:102F68001A602368204A934240F2C380783A934219
:102F780000F097801432934200F0A38014329342F9
:102F880000F0A1801432934200F0A08014329342E2
:102F980000F09F801432934200F09E8014329342D6
:102FA80000F09D8002F56272934200F09B8014321B
:102FB800934200F099801432934200F097801432C3
:102FC80093426BD04FF400326CE02021B5E74FF408
:102FD8000071B2E74FF40051AFE74FF40031ACE7AE
:102FE8004FF40011A9E700BF800002400000024032
:102FF80008000240000402404FF000719DE70221E2
:103008009BE7202199E74FF4007196E75B4A126825
:103018005B498B4224D014318B4227D014318B4228
:1030280026D014318B4226D014318B4226D014314D
:103038008B4226D014318B4226D001F562718B4227
:1030480025D014318B4224D014318B4223D0143133
:103058008B4202D04FF4003103E04FF4005100E0FE
:1030680002210A4214BF012200226AE72021F8E760
:103078004FF40071F5E74FF40051F2E74FF40031D7
:10308800EFE74FF40011ECE74FF00071E9E7022198
:10309800E7E72021E5E74FF40071E2E74FF400523B
:1030A80000E00222374B5A60636B6363012384F8A4
:1030B8002130002384F82030A36A0BB120469847BA
:1030C80010BD2022EEE74FF40072EBE74FF40052F8
:1030D800E8E74FF40032E5E74FF40012E2E74FF07B
:1030E8000072DFE70222DDE72022DBE74FF40072FF
:1030F800D8E7234A934224D01432934225D014327D
:10310800934224D01432934224D01432934224D0D0
:103118001432934224D01432934224D002F56272BE
:10312800934223D01432934222D01432934221D0B6
:103138001432934202D04FF4003203E04FF40052AD
:1031480000E002220D4B5A60AEE72022FAE74FF466
:103158000072F7E74FF40052F4E74FF40032F1E75A
:103168004FF40012EEE74FF00072EBE70222E9E7B6
:103178002022E7E74FF40072E4E700BF00000240B6
:1031880008000240000402402DE9F84305460268A1
:10319800136923F44053C1680B43136183680269C0
:1031A800134342691A430168CB6823F4B05323F0F0
:1031B8000C031343CB600268536923F4407381699D
:1031C8000B4353610268594B9A4257D0FFF74CFBA7
:1031D80000EB800000EB80006C68A400B0FBF4F406
:1031E800534FA7FB043464092601FFF73DFB00EBAE
:1031F800800000EB80006C68A400B0FBF4F9FFF7D6
:1032080033FB00EB800000EB80006C68A400B0FB8F
:10321800F4F4A7FB043464094FF0640808FB149421
:1032280024013234A7FB0434640904F0F004344464
:10323800FFF71AFB00EB800000EB80006E68B60019
:10324800B0FBF6F6FFF710FB00EB800000EB800008
:103258006B689B00B0FBF3F0A7FB0030400908FB4C
:1032680010684FEA081808F13208A7FB0837C7F3B7
:1032780043172B6827449F60BDE8F883FFF70AFBD4
:1032880000EB800000EB80006C68A400B0FBF4F455
:10329800274FA7FB043464092601FFF7FBFA00EB6C
:1032A800800000EB80006C68A400B0FBF4F9FFF725
:1032B800F1FA00EB800000EB80006C68A400B0FB22
:1032C800F4F4A7FB043464094FF0640808FB149471
:1032D80024013234A7FB0434640904F0F0043444B4
:1032E800FFF7D8FA00EB800000EB80006E68B600AC
:1032F800B0FBF6F6FFF7CEFA00EB800000EB80009B
:103308006B689B00B0FBF3F0A7FB0030400908FB9B
:1033180010684FEA081808F13208A7FB0837C7F306
:1033280043172B6827449F60A6E700BF0038014079
:103338001F85EB5148B310B5044690F83930FBB1FE
:10334800022384F839302268D36823F40053D36009
:103358002046FFF719FF2268136923F4904313618D
:103368002268536923F02A0353612268D36843F41F
:103378000053D3600020E063012384F8393010BD86
:1033880080F8383002F02AF8DAE7012070470000A8
:1033980010B590F83940E4B2012C01D0222C38D174
:1033A800002938D0002A38D090F83830012B36D090
:1033B800012380F8383001628284C2840023C36309
:1033C80090F83930DBB2222B1FD0122380F8393025
:1033D80013460446026B13489062226B1248D0626F
:1033E800226B1248106322680432206BFFF7A2FA9E
:1033F80023686FF040021A602268536943F0800323
:103408005361002084F8380004E0322380F8393012
:10341800DEE7022010BD0120FCE70120FAE70220C8
:10342800F8E700BFD13400080F35000863350008FD
:1034380010B590F83940E4B2012C01D0122C34D1E7
:10344800002934D0002A34D090F83830012B32D0FB
:10345800012380F83830816282850023C36390F8A5
:103468003930DBB2122B1CD0222380F839301346B6
:103478000A460446416B11488862616B1048C8626D
:10348800616B1048086321680431606BFFF752FADA
:103498002268536943F040035361002084F83800E0
:1034A80004E0322380F83930E1E7022010BD012022
:1034B800FCE70120FAE70220F8E700BF1935000809
:1034C800573500086335000808B5436A0268126872
:1034D80012F0200F03D0184601F0E4FA08BD0022CC
:1034E800DA8419684A6922F080024A611968CA6850
:1034F80042F04002CA60012283F83920184601F0E0
:10350800D1FAEBE7704708B5406AFFF7FBFF08BD43
:1035180008B5436A0268126812F0200F0ED1002223
:10352800DA8519684A6922F040024A6193F839201D
:10353800D2B2322A06D0012283F83920184601F087
:10354800A3FA08BD122283F83920F7E7704708B5B7
:10355800406AFFF7FBFF08BD704708B5406A0023C3
:10356800C385C384012380F83930C36B43F010034B
:10357800C363FFF7F1FF08BD10B50446FFF76EF906
:10358800064BA3FB00308009FEF7C0F80022214655
:103598004FF0FF30FEF76EF8002010BDD34D6210DB
:1035A80008B5074A136843F0100313600320FEF7B9
:1035B8004FF80020FFF7E0FF01F05CFE002008BD97
:1035C80000200240024A136801331360704700BFAD
:1035D80084000020014B1868704700BF8400002059
:1035E80010B582B00190FFF7F5FF0446FFF7F2FF30
:1035F800001B019B9842F9D302B010BD438D9BB2CA
:103608005BB1436A5A1C426202681B781361438D9E
:10361800013B9BB24385002070470268536823F43E
:1036280080635360F7E7438D9BB24BB1436A5A1CE2
:10363800426202681B781361438D013B9BB243854C
:1036480000207047438D9BB24BB1436A5A1C4262BB
:1036580002681B781361438D013B9BB243850020B0
:103668007047438D9BB24BB103681A69436A591C72
:1036780041621A70438D013B9BB24385002070471D
:10368800438D9BB24BB103681A69436A591C416266
:103698001A70438D013B9BB243850020704782B06E
:1036A80003685A6901929B690193019B002002B04B
:1036B8007047704708B501684A6822F4E0624A60BA
:1036C80001684A6922F480624A6101680A6822F442
:1036D80080620A60202280F83520FFF7EAFF002088
:1036E80008BD704700B583B001684A6822F4E062FB
:1036F8004A6001684A6901920A6842F001020A6058
:103708000192019A01680A6822F480620A60202204
:1037180080F83520FFF7E5FF002003B05DF804FBD3
:10372800704708B5438D9BB2A3B90268536823F468
:10373800E06353600268136843F40073136090F801
:103748003630DBB2402B11D0202380F8353001F021
:10375800DBFA09E0436A5A1C426202681B7813616B
:10376800438D013B9BB24385002008BD202380F890
:103778003530FFF7D5FFF7E7704708B5438D9BB2A3
:10378800032B1CD8023B012B25D90268536823F46C
:10379800E063536003681A69436A591C41621A70EE
:1037A800438D013B9BB2438590F83630DBB2402B0A
:1037B80017D0202380F8353001F0B4FA09E0036807
:1037C8001A69436A591C41621A70438D013B9BB2C6
:1037D8004385002008BD0268536823F48063536062
:1037E800F7E7202380F83530FFF7C6FFF1E708B583
:1037F800438D9BB2032B0FD0438D9BB2022B1BD062
:1038080003681A69436A591C41621A70438D013B67
:103818009BB24385002008BD0268136823F48063C7
:10382800136003681A69436A591C41621A70438D10
:10383800013B9BB24385EDE70268536823F440736C
:1038480053600268136843F40073136003681A69CD
:10385800436A591C41621A70438D013B9BB24385F0
:1038680003681A69436A591C41621A70438D013B07
:103878009BB2438590F83630DBB2402B05D020232D
:1038880080F8353001F04EFAC4E7202380F835304F
:10389800FFF772FFBEE738B590F83630DBB2102B71
:1038A8002ED090F83630DBB2402B29D003685D6902
:1038B8005A6802F40072596901F010019C6904F019
:1038C800040415F0020F01D0002A4FD109B1002AD3
:1038D8004FD1002C53D05C69596801F480615A6952
:1038E80002F004025B6803F4007314F0800F02D046
:1038F80009B1002A40D0CAB1C3B1FFF7A3FE15E051
:1039080003689A6912F0040F17D05C69596801F4CA
:1039180080615A6902F004025B6803F4007314F0D2
:10392800800F01D001B112B102B11BB938BDFFF748
:1039380065FEFBE7FFF7F5FEF8E75C69596801F4F7
:1039480080615A6902F004025B6803F4007314F0A2
:10395800400F01D001B132B1002AE7D0002BE5D0E9
:10396800FFF745FFE2E7FFF708FFDFE7FFF797FEFE
:10397800DCE7FFF7B7FED9E7FFF755FED6E75C6946
:10398800596801F480615A6902F004025B6803F423
:10399800007314F0400F01D001B132B1002AC5D034
:1039A800002BC3D0FFF76CFEC0E7FFF75AFEBDE758
:1039B80010B50446036859695A6811F4807F0FD01E
:1039C80002F4807262B1826B42F0010282635A692A
:1039D80022F480725A610268136843F4004313604A
:1039E800236859695A6802F4807211F4007F08D07C
:1039F8003AB1A26B42F00202A2635A6922F4007241
:103A08005A6122685169536803F4807311F4806F16
:103A180017D0B3B194F83630DBB2618D89B294F81F
:103A28003500C0B2202B20D0A36B43F00403A3635E
:103A3800136843F4007313602268536923F48063A6
:103A48005361236859695A6802F4807211F4006F4F
:103A580008D03AB1A26B42F00802A2635A6922F474
:103A680000625A61A36B43B910BD0029DCD121283B
:103A7800DAD12046FFF71EFEE3E7202384F835302D
:103A88002268136823F400631360204601F058F994
:103A9800EAE70000F0B583B00446036813F0010FAD
:103AA80018D1236813F0020F06D0454A536823F44F
:103AB8004043A1680B435360236813F0100F7CD078
:103AC8003F4A536823F4800361690B435360002025
:103AD80003B0F0BD3A4BDA6942F08052DA61DB6933
:103AE80003F080530193019B364A136843F48073B3
:103AF8001360FFF76FFD0546324B1B6813F4807F98
:103B080006D1FFF767FD401B6428F5D90320DFE7DE
:103B18002B4B1B6A13F440731DD0626802F4407289
:103B28009A4218D02648016A21F440764FF480332F
:103B380093FAA3F2B2FA82F2234D012745F82270D4
:103B480093FAA3F3B3FA83F3002245F8232006621D
:103B580011F0010F07D11A4A136A23F44073616800
:103B68000B4313629DE7FFF735FD054614E0144B40
:103B78001A6A022393FAA3F3B3FA83F303F01F0339
:103B880022FA03F313F0010FE5D1FFF723FD401BE1
:103B980041F2883398420ED8022393FAA3F293FA9B
:103BA800A3F3B3FA83F35B0943F00203022BDED0DD
:103BB800034B5A6ADDE703208AE7002088E700BF45
:103BC800001002400070004000044242704758B3A1
:103BD80010B504460368DA6812F0010F03D0DB68F9
:103BE80013F0020F22D1637BCBB1022363732368E6
:103BF80045F255521A602268536823F0070361683A
:103C08000B4353602268936823F47F6323F00F0308
:103C1800A1680B43936001236373002010BD2373D5
:103C28002046FFF7D3FFE0E7012070470120F5E7C2
:103C3800037B012B0FD00223437303684CF6CC425D
:103C48001A6003684AF6AA221A6001234373002304
:103C58000373184670470220704738B5037B012B61
:103C68001FD004460123037302234373FFF7B2FCFA
:103C780005462368DA6812F0020F0AD0FFF7AAFC9B
:103C8800401BB0F57A7FF4D90320607300232373B7
:103C980006E04AF6AA221A60012363730020207303
:103CA80038BD0220FCE7000010B584B01E4B5A69ED
:103CB80042F002025A615B6903F002030093009B21
:103CC800002211463B20FDF7D5FC3B20FDF706FD01
:103CD8001648174B036000238360C36043614FF4A9
:103CE8006022C261436001230361FDF7E3FBA8B9C9
:103CF8000A230193002303930123029301A90B488C
:103D0800FDF786F968B9094C2046FDF79FFA0122AC
:103D180008492046FDF710FB04B010BD01F0FCF87F
:103D2800E6E701F0F9F8EEE700100240D8000020BD
:103D3800003C01409800002010B53B20FDF7DAFC5C
:103D4800034B1C88A4B23B20FDF7C8FC204610BDDD
:103D580098000020014B01229A71704798000020BA
:103D680010B584B0244B5A6942F001025A615B696C
:103D780003F001030093009B022201210B20FDF7B1
:103D880079FC0B20FDF7AAFC1C481D4B03604FF47F
:103D9800807383600023C36043614FF46022C26173
:103DA800436002230361FDF785FBE0B90B23019310
:103DB8000123029301A91148FDF72AF9B0B90C2390
:103DC80001930223029301A90C48FDF721F980B958
:103DD8000A4C2046FDF73AFA02220A492046FDF726
:103DE800ABFA04B010BD01F097F8DFE701F094F8E2
:103DF800E5E701F091F8EBE7001002400801002028
:103E0800002401404001002010B50B20FDF772FC92
:103E1800034B5C88A4B20B20FDF760FC204610BD64
:103E28004001002010B50B20FDF764FC034B1C88F3
:103E3800A4B20B20FDF752FC204610BD4001002023
:103E4800014B01229A7170474001002010B586B0DD
:103E58000F4B9A6942F008029A619B6903F00803C4
:103E68000193019BE02302930A4B039303230593D9
:103E78000024049402A90848FDF774FC2246214650
:103E88001720FDF7F7FB1720FDF728FC06B010BD3B
:103E98000010024000003110000C0140024B4FF4AA
:103EA80000021A61704700BF00080140014B8022E0
:103EB8001A61704700080140024B4FF480321A61C2
:103EC800704700BF000C0140014B01221A61704786
:103ED800000C0140024B4FF400321A61704700BFDA
:103EE800000C0140014B02221A617047000C01408E
:103EF800034B1A68136A43F001031362704700BF4B
:103F080004020020044B1A68136A23F001031B04FF
:103F18001B0C1362704700BF04020020034B1A6891
:103F2800136A43F010031362704700BF04020020B5
:103F3800044B1A68136A23F010031B041B0C13624A
:103F4800704700BF04020020034B1A68136A43F449
:103F580080731362704700BF04020020044B1A6884
:103F6800136A23F480731B041B0C1362704700BF91
:103F780004020020064B1B6803FB00F0054BA3FB63
:103F880000308009044B1B6858639863D8637047F6
:103F980040020020D34D62100402002010B500201A
:103FA800FFF7E8FF104C0123A373FFF77FFFFFF72C
:103FB8008BFFFFF797FFFFF7A5FFFFF7B9FFFFF7A5
:103FC800CDFF002211461720FDF754FB1720FDF7FF
:103FD80091FB064B20225A6140225A6180225A6185
:103FE80000232371637110BD4002002000040140CA
:103FF8002DE9F04399B0644B9A6942F400529A61F2
:104008009A6902F400520192019A604A1268D20831
:104018005F49A1FB0212120A013A5E4F3A609A699F
:1040280042F400529A619A6902F400520292029A8A
:104038009A6942F004029A619A6902F004020392B2
:10404800039A9A6942F008029A619A6902F0080292
:104058000492049A9A6942F010029A619B6903F0EB
:1040680010030593059BFFF721FFFFF72DFFFFF7CF
:1040780039FF012615964FF00308CDF85C80169697
:1040880018AC802344F8103D21464348FDF76AFBED
:104098001496DFF8149121464846FDF763FB022584
:1040A800149521464846FDF75DFB1595CDF85C80D3
:1040B80016954FF4E073149321463848FDF752FBE8
:1040C800374D384B2B6000246C603B68EB602C61EB
:1040D800AC606C612846FDF78CFD0C940B940A9437
:1040E80008944FF4806307934FF4006306932823E2
:1040F800099306A92846FDF787FA60230D931194C2
:104108000F944FF00808CDF84080129413940E9441
:1041180022460DA92846FDF7BDFD0E9404220DA9DF
:104128002846FDF7B7FD0E9442460DA92846FDF72F
:10413800B1FD21462846FDF729FE04212846FDF752
:1041480025FE41462846FDF721FE0C212846FDF7AD
:1041580039FE2046FFF70EFFFFF7A8FEFFF7B4FE73
:10416800FFF7C0FEFFF7CEFEFFF7E2FEFFF7F6FE11
:10417800BE73324621462E20FDF77CFA2E20FDF72D
:10418800ADFA19B0BDE8F08300100240000000202D
:1041980089B5F814400200200008014000100140D1
:1041A8000402002000340140000C014008B5FFF76C
:1041B8001FFFFFF74BFE044B00221A715A71DA8079
:1041C8001A81FFF7EBFE08BD4002002010B53A4BFC
:1041D8009B6803F0E003394CA381FFF767FEFFF704
:1041E80073FEFFF77FFEFFF78DFEFFF7A1FEFFF7D7
:1041F800B5FEA37BDBB9A37A73B3A3899BB2602B0B
:1042080016D007D9A02B1DD0C02B20D0802B14D0BE
:1042180000BF0CE0202B06D0402BF9D1FFF77EFE23
:10422800FFF758FE03E0FFF763FEFFF745FE10BDFA
:10423800FFF75EFEFFF74EFEF9E7FFF72FFEFFF7E9
:1042480083FEF4E7FFF738FEFFF77EFEEFE7FFF7A0
:1042580025FEFFF763FEEAE7184B9B899BB2602BAC
:1042680016D007D9A02B1DD0C02B20D0802B14D05E
:1042780000BFDCE7202B06D0402BF9D1FFF71CFE4E
:10428800FFF762FED3E7FFF709FEFFF747FECEE729
:10429800FFF704FEFFF758FEC9E7FFF729FEFFF70F
:1042A80019FEC4E7FFF73AFEFFF714FEBFE7FFF772
:1042B8001FFEFFF701FEBAE7000C01404002002094
:1042C80038B50020FFF756FE094D00242C81EC80FC
:1042D800224621461720FDF7CDF91720FDF7FEF9F4
:1042E8002046FFF747FEAC73FFF770FF38BD00BFED
:1042F8004002002010B5B0F57A7F21DC044610F5A5
:104308007A7F1FDA1D4C604280B204B21C4B1B78C6
:1043180023B301231B4A9372194A1370A4B2631D75
:104328009BB20A2B21D9174B00229A73164B1B7884
:104338000BBB154B00221A702046FFF71BFE10BD61
:104348004FF47A74002CDEDB0D4B1B78012B08D060
:1043580000230C4A93720A4A1370DFE7FFF70AFE3C
:10436800D7E7A0B2FFF706FEF2E70123054A9373E9
:10437800054A1370E0E7FFF729FFDAE718FCFFFFAB
:10438800880000204002002089000020024B012202
:104398001A715A71704700BF4002002008B5164BC9
:1043A8005B7913B1144B1B79E3B1134B5B793BB1C8
:1043B800114B1B7923B1104A1379013BDBB21371FE
:1043C8000D4A138901339BB2138113899BB241F2C1
:1043D8008732934205D9084B41F288321A8100226C
:1043E800DA8008BDFFF7F2FE034B002159711A89E4
:1043F80092B2DA801981E3E740020020024B4FF0C5
:1044080000521A61704700BF000C0140024B4FF484
:1044180000521A61704700BF000C0140024B4FF078
:1044280080421A61704700BF000C0140024B4FF4F4
:1044380080421A61704700BF000C0140024B4FF0E8
:1044480000421A61704700BF000C0140024B4FF454
:1044580000421A61704700BF000C014010B586B0D9
:10446800104B9A6942F010029A619B6903F010039D
:104478000193019B4FF4E05302930B4B03930323E7
:1044880005930024049402A90848FDF76BF9224615
:1044980021462820FDF7EEF82820FDF71FF906B081
:1044A80010BD00BF00100240000031100010014094
:1044B800034B1A68136A43F001031362704700BF85
:1044C80060020020044B1A68136A23F001031B04DE
:1044D8001B0C1362704700BF60020020034B1A6870
:1044E800136A43F010031362704700BF6002002094
:1044F800044B1A68136A23F010031B041B0C136285
:10450800704700BF60020020034B1A68136A43F427
:1045180080731362704700BF60020020044B1A6862
:10452800136A23F480731B041B0C1362704700BFCB
:1045380060020020064B1B6803FB00F0054BA3FB41
:1045480000308009044B1B6858639863D863704730
:1045580050020020D34D62106002002010B50020E8
:10456800FFF7E8FF124C0123A373FFF74FFFFFF794
:104578005DFFFFF76BFFFFF7A5FFFFF7B9FFFFF739
:10458800CDFF002211462820FDF774F82820FDF7FA
:10459800B1F8084B4FF480525A614FF400625A61E7
:1045A8004FF480625A6100232371637110BD00BF0C
:1045B80050020020000401402DE9F04196B06A4BFA
:1045C8009A6942F400629A619A6902F40062009260
:1045D800009A664A1268D2086549A1FB0212120ABB
:1045E800013A644F3A609A6942F400629A619A69A2
:1045F80002F400620192019A9A6942F004029A61F7
:104608009A6902F004020292029A9A6942F0080238
:104618009A619B6903F008030393039BFFF7F6FE77
:10462800FFF704FFFFF712FF0126139614964FF0C9
:104638000308CDF8548016AC4FF4005344F8103DED
:104648004D4D21462846FDF78DF84FF480431293CF
:1046580021462846FDF786F84FF400431293214679
:104668002846FDF77FF8022313931493CDF854805E
:104678004FF480731293A5F5806521462846FDF70F
:1046880071F84FF40073129321462846FDF76AF833
:104698004FF48068CDF8488021462846FDF762F837
:1046A800364D374B2B6000246C603B68EB602C6107
:1046B800AC606C612846FDF79CFA0A94099408944A
:1046C8000694CDF814804FF40063049328230793CD
:1046D80004A92846FCF798FF60230B930F940D94C8
:1046E8004FF00808CDF83880109411940C942246A5
:1046F8000BA92846FDF7CEFA0C9404220BA92846EC
:10470800FDF7C8FA0C9442460BA92846FDF7C2FAF1
:1047180021462846FDF73AFB04212846FDF736FBDB
:1047280041462846FDF732FB0C212846FDF74AFB97
:104738002046FFF7FFFEFFF769FEFFF777FEFFF75A
:1047480085FEFFF7BFFEFFF7D3FEFFF7E7FEBE7358
:10475800324621461B20FCF78DFF1B20FCF7BEFFCD
:1047680016B0BDE8F08100BF001002400000002034
:1047780089B5F81450020020000C014060020020A6
:10478800002C014008B5FFF717FFFFF767FE044B41
:1047980000221A715A71DA801A81FFF7DFFE08BD0C
:1047A8005002002010B5404B9B6803F4E0533F4C87
:1047B800A381FFF72BFEFFF739FEFFF747FEFFF750
:1047C80081FEFFF795FEFFF7A9FEA37B0BBBA37A3B
:1047D800A3B3A3899BB2B3F5406F1BD00AD9B3F535
:1047E800A05F21D0B3F5C05F23D0B3F5805F16D0AA
:1047F80000BF0EE0B3F5806F07D0B3F5006FF7D1B7
:10480800FFF70CFEFFF780FE03E0FFF7F7FDFFF769
:1048180065FE10BDFFF7F2FDFFF776FEF9E7FFF73B
:1048280047FEFFF70BFEF4E7FFF758FEFFF706FE1B
:10483800EFE7FFF73DFEFFF7F1FDEAE71B4B9B892A
:104848009BB2B3F5406F1BD00AD9B3F5A05F21D056
:10485800B3F5C05F23D0B3F5805F16D000BFD8E7AB
:10486800B3F5806F07D0B3F5006FF7D1FFF736FEC9
:10487800FFF7E4FDCDE7FFF71BFEFFF7CFFDC8E725
:10488800FFF716FEFFF7DAFDC3E7FFF7B7FDFFF7FF
:104898003BFEBEE7FFF7C2FDFFF736FEB9E7FFF7BD
:1048A800ADFDFFF71BFEB4E70010014050020020E9
:1048B80038B50020FFF73EFE094D00242C81EC801E
:1048C800224621462820FCF7D5FE2820FCF706FFC3
:1048D8002046FFF72FFEAC73FFF764FF38BD00BF1B
:1048E8005002002010B5B0F57A7F21DC044610F59F
:1048F8007A7F1FDA1D4C604280B204B21C4B1B78D1
:1049080023B301231B4A9372194A1370A4B2631D7F
:104918009BB20A2B21D9174B00229A73164B1B788E
:104928000BBB154B00221A702046FFF703FE10BD83
:104938004FF47A74002CDEDB0D4B1B78012B08D06A
:1049480000230C4A93720A4A1370DFE7FFF7F2FD5F
:10495800D7E7A0B2FFF7EEFDF2E70123054A93730C
:10496800054A1370E0E7FFF71DFFDAE718FCFFFFC1
:104978008A000020500200208B000020024B0122F8
:104988001A715A71704700BF5002002008B5164BC3
:104998005B7913B1144B1B79E3B1134B5B793BB1D2
:1049A800114B1B7923B1104A1379013BDBB2137108
:1049B8000D4A138901339BB2138113899BB241F2CB
:1049C8008732934205D9084B41F288321A81002276
:1049D800DA8008BDFFF7E6FE034B002159711A89FA
:1049E80092B2DA801981E3E75002002000B583B063
:1049F8001B4BDA6942F40032DA61DB6903F40033F5
:104A08000193019B062205211020FCF733FE10209C
:104A1800FCF764FE072205211120FCF72BFE11206C
:104A2800FCF75CFE0F48104B03604FF4E133436022
:104A380000238360C36003610C2242618361FEF737
:104A480079FC48B9094B002283F87920012283F8C0
:104A58007A2003B05DF804FB00F05EFAF2E700BFCD
:104A68000010024088030020004400409C020020FF
:104A780010B50446FBF7B4FB82B221460148FEF7A5
:104A880087FC10BD880300200268044B9A4200D0BE
:104A98007047034B012283F87920F9E7004400406E
:104AA8009C0200200268044B9A4200D07047034BD6
:104AB800012283F87A20F9E7004400409C02002094
:104AC80010B586B00D4B9A6942F008029A619B694D
:104AD80003F008030193019B094C0022042120469E
:104AE800FCF73FFF0423029301230393022305935A
:104AF80002A92046FCF736FE06B010BD00100240A1
:104B0800000C014000B587B00B4B9A6942F00402D3
:104B18009A619B6903F004030193019B4FF480534E
:104B28000293002303930123049302A90348FCF78B
:104B380019FE07B05DF804FB0010024000080140B0
:104B480008B5024604210248FCF70BFF08BD00BF68
:104B5800000C014008B5024620210248FCF701FF7D
:104B680008BD00BF0008014008B5024610210248F0
:104B7800FCF7F7FE08BD00BF0008014030B587B05C
:104B8800124B9A6942F004029A619B6903F004038C
:104B98000193019B0E4D002210212846FCF7E1FEEF
:104BA80010230293012403940223059302A92846A3
:104BB800FCF7D8FD0020FFF7D7FF2046FFF7D4FF0A
:104BC8000020FFF7D1FF07B030BD00BF0010024042
:104BD8000008014038B5002518E00120FFF7C4FFA0
:104BE800A02000F0F7F80020FFF7BEFFA02000F09B
:104BF800F1F80A48FFF731F80134952CEDDD002073
:104C0800FFF7B2FFC820FEF7EBFC0135012D01DCF0
:104C18000024F2E70020FFF7A7FF38BD4C0500206D
:104C280010B500240FE00120FFF79EFFA02000F040
:104C3800D1F80020FFF798FFA02000F0CBF8054836
:104C4800FFF70BF80134B4F5167FECDB0020FFF713
:104C58008BFF10BD4C05002008B502210148FCF768
:104C680079FE08BD0008014030B587B00F4B9A693E
:104C780042F004029A619B6903F004030193019BCB
:104C88000224049420230293012303930594084DDE
:104C980002A92846FCF766FD0294002303930493B7
:104CA80002A92846FCF75EFD07B030BD001002409F
:104CB8000008014008B5FFF799FE08220249034899
:104CC800FEF7B6FB08BD00BFE803002088030020FC
:104CD80008B5044B58680449FBF750FFFCF714F972
:104CE80000B208BDE803002000007A4408B5044B70
:104CF80018680449FBF742FFFCF706F900B208BD43
:104D0800E803002000007A440268044B9A4200D06D
:104D18007047034B01221A73FAE700BF005800409E
:104D2800F00300200268044B9A4200D07047034BFE
:104D380001225A73FAE700BF00580040F003002030
:104D48000268044B9A4200D07047034B01229A73C1
:104D5800FAE700BF00580040F003002010B582B009
:104D6800114BDA6942F00102DA61DB6903F00103F1
:104D78000193019B0D4C4FF0804323604FF6FF7366
:104D8800E3600B4B1B680B4AA2FB03239B0C013B04
:104D9800636000232361A3602046FCF711FF2046CF
:104DA800FCF7A1FE02B010BD00100240B0040020C4
:104DB8000000002083DE1B4308B50448FCF7A0FE72
:104DC800034AD36923F00103D36108BDB00400206E
:104DD8000010024010B50446FFF7C0FF4FF08043B3
:104DE8005A6A4FF080435B6A9B1AA342F9D9FFF7CE
:104DF800E3FF10BD014B1868704700BFEC040020AA
:104E080070B50B4C00262670FFF7A8FBFFF7C6F815
:104E1800FEF7E0FB074D6860FEF7DCFB28614FF406
:104E2800AF63AB602E730023A3616362A36270BD9E
:104E380000050020EC040020F8B5FEF7CBFB224B60
:104E48005B68C01AC82800D8F8BDFEF7C3FB1E4C23
:104E58006060A068A568FBF70DFB00221B4BFBF701
:104E6800ADFC06460F462846FBF704FB32463B4698
:104E7800FBF7C2F9FBF712FEA060FEF7D3FFFBF7C2
:104E880009FB0022114BFBF799FC06460F46A06868
:104E9800FBF7F0FA32463B46FBF7B0F9FBF7FEFDAD
:104EA800A060A068FBF7E6FA05A3D3E90023FBF7A7
:104EB8005BFBFBF713FE2060C6E700BFAFF3008083
:104EC800F5E4E827181C9B3FEC0400200000244070
:104ED80008B5FEF799FFA0F26C7000B208BD08B5DE
:104EE800FEF72AFFA0F26C7000B208BD10B50446A8
:104EF8000268074B9A4204D02268064B9A4203D0B4
:104F080010BDFEF79DFFF7E7FEF724FFF8E700BFA7
:104F180000240140003C014008B5FFF71FFBFFF7E4
:104F28003DF8FEE700B583B00E4BDA6942F4006243
:104F3800DA61DB6903F400630193019B0A480B4BB8
:104F480003600123436040F6FF738360FEF73FFE72
:104F580028B90548FEF76CFE03B05DF804FBFFF7BF
:104F6800DBFF00BF001002404C050020003000406D
:104F780000B597B002230C930122109210221192CF
:104F88001393002314934FF4601315930CA8FDF7A3
:104F980043F850BB0F23079302210891002309937C
:104FA8004FF480620A920B9307A8FDF76DFBF0B9E6
:104FB800022301934FF44043039301A8FEF76AFDCF
:104FC800B8B9FDF74BFC0C4BA3FB00308009FCF78C
:104FD8009DFB0420FCF7B0FB002211464FF0FF3088
:104FE800FCF748FB17B05DF804FBFFF795FFFFF7E8
:104FF80093FFFFF791FF00BFD34D62100000000040
:105008002DE9F0439DB0FEF7CBFAFFF7B1FFFFF7AC
:105018002BFE0120FFF79EFDFFF74CFEFFF7AEFDCC
:10502800FFF74EFDFFF76EFDFEF73EFEFEF798FE1A
:10503800FFF7BCF8FFF7A6FB4FF4AF70FEF7D0FA06
:10504800FFF70AFE054618B10020FFF779FDF7E7DC
:10505800FFF7D6FEFFF7F0FEFFF764FF0120FFF72A
:105068006FFDFFF7B7FD4FF4AF70FEF7B9FAFFF722
:105078001FFCFFF725F92E4600247EE07448FEF752
:10508800ECFDFFF7E9FD0028F8D1FFF7C9FD4FF463
:10509800AF70FEF7A5FA0020FFF75CFD73E0FFF79D
:1050A80025FEB0F57A7F27DD6A4FFFF711FEB0F5D0
:1050B8007A7F2DDDDFF89C81BD4201D1464508D0BD
:1050C80038B2FFF717F90FFA88F0FFF70BFC4646DE
:1050D8003D464FF064094A46002103A800F03CFA17
:1050E800CDF800803B465C4A494603A800F03CFAEC
:1050F80003A8FFF7BDFC4FE0FFF7F8FD10F57A7F36
:1051080002DA4FF47A77D0E7FFF7F0FD4742CCE7B1
:10511800FFF7DEFD10F57A7F02DA4FF47A78CBE7F5
:10512800FFF7D6FDC0F10008C6E7FFF7D1FEFBF791
:10513800B1F945A3D3E90023FBF716FA0022474B40
:10514800FBF784FC00284ED00020FFF7D3F800209E
:10515800FFF7C8FBFFF764FD4FF4AF70FEF740FAA6
:105168000020FFF7F7FC3A48FEF777FDFEF732FA22
:105178003B4B1B68C01A3B4B18600134FFF76CFDB2
:1051880000287FF47EAF384BA3FB04239B09C82279
:1051980002FB1343002B82D0FFF74EFEFFF72AFED7
:1051A8003249FBF789FE0028CED1FFF791FEFBF7C5
:1051B80071F925A3D3E90023FBF7D6F900220023D0
:1051C800FBF744FC0028B0D1FFF782FEFBF762F939
:1051D8001DA3D3E90023FBF7C7F90022244BFBF7F3
:1051E80053FC0028B0D1FFF77AFEFBF753F916A35A
:1051F800D3E90023FBF7B8F900220023FBF726FCCC
:1052080078B9FFF76CFEFBF745F90FA3D3E9002344
:10521800FBF7AAF90022164BFBF736FC0028A2D0B0
:1052280092E7FFF75CFEFBF735F907A3D3E9002304
:10523800FBF79AF90022094BFBF708FC002883D1F9
:1052480091E700BFAFF300807B14AE47E17A943F4B
:105258004C05002018FCFFFF185E0008000034C051
:10526800480500205C0500201F85EB510000F8412F
:105278000000344000B583B01C4B9A6942F001022B
:105288009A619B6903F001030193019B0320FCF7DA
:10529800DFF9002211466FF00B00FCF7EBF9002252
:1052A80011466FF00A00FCF7E5F9002211466FF08D
:1052B8000900FCF7DFF9002211466FF00400FCF743
:1052C800D9F9002211466FF00300FCF7D3F9002248
:1052D80011466FF00100FCF7CDF9002211464FF09E
:1052E800FF30FCF7C7F903B05DF804FB001002407B
:1052F80010B586B004460368304A934204D0304A59
:1053080093422ED006B010BD2E4B9A6942F400721B
:105318009A619B6903F400730093009B0623029330
:105328000323039302A92848FCF71CFA2748284BB3
:1053380003600023436083608022C2604FF4807260
:1053480002614FF48062426120228261C361FDF7ED
:10535800C8FA18B91D4B23625C62D3E7FFF7DCFD7E
:10536800F8E7184B9A6942F400429A619B6903F482
:1053780000430193019B012302930323039302A992
:105388001148FCF7EFF91348134B036000234360FF
:1053980083608022C2604FF4807202614FF48062A1
:1053A800426120228261C361FDF79BFA18B9094B5B
:1053B80023625C62A6E7FFF7AFFDF8E7002401402F
:1053C800003C01400010024000100140480100204C
:1053D80008000240A0000020580402400268334B35
:1053E8009A4200D0704770B588B0044603F5E6339A
:1053F8005A6942F001025A615A6902F001020192A7
:10540800019A9A6942F004029A619A6902F00402C8
:105418000292029ADA6942F40032DA61DB6903F433
:1054280000330393039B012306930423049302236D
:105438000593032307931E4E04A93046FCF792F9FF
:10544800082304930025059504A93046FCF78AF93A
:105458001848194B0360456085608023C360056167
:10546800456120238361C561FDF73BFAB8B9114B4B
:1054780063635C621148124B03601023436000238E
:1054880083608022C260036143618361C361FDF769
:1054980028FA38B9094B23635C6208B070BDFFF77E
:1054A8003BFDE4E7FFF738FDF4E700BF00440040A8
:1054B80000080140180300206C000240500300203F
:1054C80080000240002103E00B4B5B58435004313D
:1054D8000A480B4B42189A42F6D30A4A02E00023C4
:1054E80042F8043B084B9A42F9D3FCF741FA00F022
:1054F8000FF8FFF785FD70475C5E0008000000208C
:10550800680000206800002064050020FEE7000015
:1055180070B500250C4E0D4CA41BA410A54209D152
:1055280000F054FC00250A4E0A4CA41BA410A54206
:1055380005D170BD56F8253098470135EEE756F885
:10554800253098470135F2E7545E0008545E00089C
:10555800545E0008585E000803460244934200D196
:10556800704703F8011BF9E70CB430B5174B0C1E54
:105578009DB01D6808DA8B234FF0FF302B601DB0FB
:10558800BDE8304002B070474FF40273ADF81430F4
:105598000CBF234604F1FF33049307934FF6FF73C0
:1055A80002900690ADF81630209A21AB02A9284641
:1055B800019300F067F8431CBCBF8B232B60002CC1
:1055C800DDD00022029B1A70D9E700BF040000203A
:1055D8002DE9F0478E6882469E420C4690469946D1
:1055E80037D88A8912F4906F31D002232568096967
:1055F8006F1A656905EB450595FBF3F509F101039C
:105608003B449D4238BF1D46530530D5294600F01E
:1056180035FB064650B90C234FF0FF30CAF800306E
:10562800A38943F04003A381BDE8F0873A46216986
:1056380000F0B4FAA38923F4906343F08003A381B4
:1056480026613E4426604E466561ED1BA5604E45C9
:1056580000D94E4632464146206800F0AAFAA368AF
:1056680000209B1BA36023681E442660DCE72A46B3
:1056780000F05EFB06460028E2D12169504600F0A2
:10568800B1FAC8E72DE9F04F9DB003938B898046A6
:105698001D060C4616460FD50B696BB9402100F064
:1056A800EDFA2060206128B90C23C8F800304FF0CB
:1056B800FF30C7E0402363610023099320238DF85E
:1056C800293030234FF0010B8DF82A3037463D46FC
:1056D80015F8013B0BB1252B3ED1B7EB060A0BD0D1
:1056E8005346324621464046FFF772FF013000F02C
:1056F800A480099B534409933B78002B00F09D80BC
:1057080000234FF0FF32CDE90523049307938DF86A
:1057180053301A932F46052217F8011B4F4800F003
:105728002FFA049BD0B9D90644BF20228DF8532004
:105738001A0744BF2B228DF853202A782A2A15D01D
:105748002F4600200A25079A394611F8013B303BBD
:10575800092B4DD9B8B10FE02F46B8E73F4A3D466F
:10576800801A0BFA00F018430490D3E7039A111D2E
:1057780012680391002A01DB079204E0524243F0C9
:105788000203079204933B782E2B0CD17B782A2BAB
:1057980033D1039B02371A1D1B680392002BB8BF35
:1057A8004FF0FF3305932E4D03223978284600F039
:1057B800E7F938B14023401B03FA00F0049B013796
:1057C800034304933978062226487E1C8DF8281056
:1057D80000F0D6F9002838D0234B13BB039B0733BE
:1057E80023F0070308330393099B4B4409936DE7A0
:1057F80005FB023201200F46A6E700230A251946B9
:1058080001370593384610F8012B303A092A03D995
:10581800002BC8D00591C6E705FB012101230746E7
:10582800F0E703AB00932246104B04A94046AFF3C0
:105838000080B0F1FF3F8146D6D1A3895B063FF5D2
:1058480036AF09981DB0BDE8F08F03AB0093224630
:10585800064B04A9404600F081F8EAE7205E0008FC
:10586800265E00082A5E000800000000D9550008DE
:105878002DE9F04791461F468A680B690646934210
:10588800B8BF1346C9F8003091F843200C46DDF83C
:10589800208012B10133C9F800302368990642BF4D
:1058A800D9F800300233C9F80030256815F006052C
:1058B80007D104F1190AE368D9F800209B1AAB4212
:1058C80029DC94F843302268003318BF012392067C
:1058D8002ED404F1430239463046C047013021D066
:1058E8002368E56803F00603042B18BF0025D9F8E0
:1058F80000204FF0000908BFAD1AA368226908BF4D
:1059080025EAE5759342C4BF9B1AED181A344D4534
:105918001AD1002008E00123524639463046C047D4
:10592800013003D14FF0FF30BDE8F0870135C2E701
:105938003020E11881F843005A1C94F8451022449D
:10594800023382F84310C4E7012322463946304621
:10595800C0470130E6D009F10109D8E72DE9F04345
:1059680001F1430C0C46097E85B06E2917460646A0
:1059780098460C9A00F0B38022D8632936D00AD80A
:10598800002900F0B980582900F0838004F142050D
:1059980084F8421032E0642901D06929F6D12068E0
:1059A8001368050603F104012AD51B681160002B52
:1059B80003DA2D225B4284F843206F480A2239E03B
:1059C800732900F09D8008D86F2920D07029DDD177
:1059D800236843F02003236003E0752917D0782952
:1059E800D4D17823654884F8453055E0136804F12C
:1059F8004205191D1B68116084F8423001238CE0B0
:105A08001B6810F0400F116018BF1BB2CFE7136876
:105A18002568181D1060280601D51B6802E0680675
:105A2800FBD51B886F2914BF0A220822524800217F
:105A380084F843106568002DA560C0F29580216840
:105A480021F004012160002B3DD1002D40F08E8013
:105A58006546082A0BD12368DB0708D523696268E5
:105A68009A42DEBF302305F8013C05F1FF35ACEB67
:105A780005032361CDF800803B4603AA2146304642
:105A8800FFF7F6FE01304DD14FF0FF3005B0BDE80D
:105A9800F083394884F84510136821681D1D1B6878
:105AA80015600A060BD5CA0744BF41F020012160E2
:105AB8001BB9226822F0200222601022B7E74D06A7
:105AC80048BF9BB2EFE76546B3FBF2F102FB113327
